:020000040800F2
:10000000D018002065010008CF1D00082508000851
:10001000CD1D0008E1030008F95B000800000000A6
:100020000000000000000000000000006121000846
:10003000E303000800000000691E00087D010008BD
:100040007F0100087F0100087F0100087F01000890
:100050007F0100087F0100087F010008E503000818
:100060007F0100087F0100087F0100087F01000870
:100070007F0100087F0100087F0100087F01000860
:100080007F0100087F0100087F0100087F01000850
:100090007F0100087F0100087F0100087F01000840
:1000A0007F0100087F0100087F0100087F01000830
:1000B000812500087F0100087F0100087F010008FA
:1000C0007F0100087F0100087F0100087F01000810
:1000D0007F0100087F0100087F0100087F01000800
:1000E0007F0100087F0100087F0100080000000078
:1000F0000000000000000000000000000000000000
:1001000000000000000000007F0100087F010008DF
:100110007F0100087F0100087F0100087F010008BF
:100120007F0100087F0100087F0100087F010008AF
:100130007F0100087F0100087F0100087F0100089F
:100140007F0100087F0100087F0100085D1E000894
:10015000DFF80CD000F09CF800480047E57100087B
:10016000D01800200648804706480047FEE7FEE713
:10017000FEE7FEE7FEE7FEE7FEE7FEE7FEE7FEE757
:100180001D2500085101000840EA01039B0703D028
:1001900009E008C9121F08C0042AFAD203E011F8C6
:1001A000013B00F8013B521EF9D27047D2B201E088
:1001B00000F8012B491EFBD270470022F6E710B56C
:1001C00004460846114602462046FFF7EFFF204648
:1001D00010BD034600E0401C0278002AFBD111F854
:1001E000012B00F8012B002AF9D11846704730B5D1
:1001F0000EE003460A4601E05B1C521C1C78157891
:10020000AC4201D1002CF7D115F0FF0F04D0401CF7
:100210000278002AEDD1002030BD034611F8012BF1
:1002200000F8012B002AF9D1184670472DE9F05F3C
:100230000546002092469B46884606468146402455
:100240001BE0284641464746224600F042F8524607
:100250005B46801A994110D310461946224600F099
:1002600029F82D1A67EB01084F462246012000218C
:1002700000F020F817EB00094E41201EA4F1010404
:10028000DFDC484631462A464346BDE8F09F000081
:10029000064C074D06E0E06840F0010394E80700D3
:1002A00098471034AC42F6D3FFF756FFB0A30008CE
:1002B000D0A30008202A04DB203A00FA02F1002033
:1002C00070479140C2F1200320FA03F31943904094
:1002D0007047202A04DB203A21FA02F000217047FF
:1002E00021FA02F3D040C2F120029140084319469E
:1002F000704770B501EB020410F8015B15F00703BD
:1003000001D110F8013B2A1106D110F8012B03E0AE
:1003100010F8016B01F8016B5B1EF9D12B0705D4B6
:100320000023521E0FD401F8013BFAE710F8013BFD
:1003300002F10202A1EB030303E013F8015B01F8F1
:10034000015B521EF9D5A142D6D3002070BD00003A
:1003500010B5074C2060084600F00CF82068002813
:10036000FCD1BDE8104000214FF0804002F017B9E9
:10037000000000203EB504464FF08045002128468D
:1003800002F00DF900220121284602F01DF9022C8D
:1003900002D0012C02D005E00B2001E042F6DF6024
:1003A000ADF804000520ADF800000020ADF806000F
:1003B000ADF802006946284602F00EF901212846F0
:1003C00002F0EAF80121284602F0DCF80122114689
:1003D000284602F0F9F80121284602F0E0F83EBD77
:1003E000FEE7704710B5022000F016F8002809D08B
:1003F0000548D0F8800040698047BDE810400220E1
:1004000000F004B810BD0000EC06002001490860AF
:100410007047000014040140064A0146002012689B
:10042000044B0A4014331B680B4202D0002A00D050
:10043000012070470004014030B51A4983790268F1
:1004400053B30B6893430B600A1D13680468A343FE
:10045000136002790A441368046823431360114A45
:10046000083213680468A3431360131D1C680568F1
:10047000AC431C604479102C05D021440A68006804
:1004800002430A6030BD1168046821431160196895
:1004900000680143196030BD007908440168914348
:1004A000016030BD000401402DE9F047894694B059
:1004B00001460DA806F015FB454F464C05004FF6CA
:1004C000FF7647F6FF787AD07EE069460DA806F001
:1004D000DEFB050078D19DF80900002874D02E2895
:1004E0006DD00DF109008246014607A8FFF795FE81
:1004F0007878401CC0B2787009281CD90020787028
:100500004FF4FC6000F0AAFD33A1C62000F0DAFA37
:100510003DA1D22000F0D6FA304600F09FFD01E068
:1005200002F0A8F83F4800F06BF920B1022001F07A
:10053000B9FD0128F4D0B9F1010F03D0B9F1020FD0
:1005400007D00FE0A4F8008037A005F057FB36A0D5
:1005500005E0A4F8008036A005F050FB34A007F0B9
:10056000AFF826809DF8080034A100F03F00102865
:1005700007A812D0FFF72DFEA4F8008007A805F009
:100580003DFB07A807F09CF8A4F800609DF8080060
:1005900000F03F00102812D10AE0FFF71AFE268073
:1005A00007A805F02BFB07A807F08AF8EEE706E09E
:1005B000B9F1010F03D102215046FFF775FF194829
:1005C00000F01EF9002880D114B02846BDE8F0875D
:1005D00004000020B800002020202020202020201F
:1005E000202020202020202020202020202020200B
:1005F00020202020202020202020202020202020FB
:1006000020202020202000005072657373204B654D
:10061000793220746F20636F6E74696E75652E2E4B
:100620002E000000400100202020207C5F5F0000A1
:100630002020207C2020207C5F5F00000A0000003A
:1006400010B58A0721F003040649130F21440F2235
:100650008C689A4094438C608A68984002438A6010
:1006600010BD0000000001402DE9F041CB780025CD
:1006700003F00F02DB0601D58B781A430B884FF08D
:100680000F0813F0FF0F4FF0010C1CD0D0F8004002
:100690000E880CFA05F31E409E4210D1AF0008FAF6
:1006A00007F624EA060602FA07F43443CE78282E29
:1006B00002D0482E02D002E0436100E003616D1CCD
:1006C000082DE5D304600B88FF2B1DD94468002555
:1006D00005F108060CFA06F30E881E409E420FD163
:1006E000AF0008FA07F624EA060602FA07F43443D4
:1006F000CE78282E00D14361CE78482E00D10361F8
:100700006D1C082DE4D34460BDE8F081F0B5144CB5
:10071000002801DAE36900E06368420D120185B246
:10072000C0F301579540C0F30346032F05D0C20222
:100730000AD50322B240934307E023F07062636856
:1007400023F07063636002E0AB4343F0706201B179
:100750002A43002801DAE261F0BD6260F0BD0000CA
:1007600000000140806880B2704702460020926815
:100770000A4200D001207047416170470161704713
:10078000C16070474069806880B27047D0F8CC0083
:100790000068C0F341407047084490F89B037047DD
:1007A00000EB8100D0F85003704710B504460022DA
:1007B0001046C4F8102304EB8203C3F81403C3F8F3
:1007C0005003A31883F88C03521CD2B20F2AF2D321
:1007D0000820A4F8B203204604F02CFA204604F0C6
:1007E0002BF8204603F068FF0121204604F082FA2E
:1007F000204603F0A1FF204604F044F8002010BD7D
:10080000D0F81003704710B504F0FEF9002010BDB9
:100810000022431883F89B2300EB4113C3F8C02345
:1008200004F03FB9FEE7000070B596B004460146FB
:1008300001250EA806F055F900284AD108A90EA8EE
:1008400006F025FA002844D19DF82900002840D060
:100850002E28F3D09DF828000DF12906C006EDD40E
:100860002BA13046FFF7C3FC28B92AA13046FFF779
:10087000BEFC0028E2D000208DF80000214668462A
:10088000FFF7CBFC24A16846FFF7A3FC314668467E
:10089000FFF79FFC01226946204806F07DF8694673
:1008A0001FA006F00DFF01F0B9FC642003F0FEFE6E
:1008B000002501E001F0DEFE2548FFF7A1FF20B191
:1008C000022001F0EFFB0128F4D0144805F0A6FF48
:1008D000B4E720A000F012FA24A000F0DCF92D49C2
:1008E0002D4C4FF6FF700880218920684843010D88
:1008F0002AA005F083F9218920684843010D27A02B
:1009000006F0DEFE2D490120087016B0284670BDA5
:10091000626D7000424D50002F000000A0090020C1
:100920000A0A2041524D4A49534855C9F1D6DB5372
:10093000544D3332BFAAB7A2B0E5A3ACCFD4CABEE0
:10094000424D50CDBCC6AC3A2025732E00000000AD
:100950004001002020555342204F54472046532049
:100960004D534320486F7374000000002041524DE6
:100970004A495348552E434F4D2055534220486F06
:100980007374204C6962726172792076322E312E36
:1009900030000000B8000020C40F00203E20446951
:1009A000736B206361706163697479203A202564F8
:1009B000204D2042797465730A0000000400002075
:1009C0002DE9F047002482462146204600F0FCFA3B
:1009D00001F090F9DFF848904FF48078414648469E
:1009E000FFF7CAFE4FF400510E48FFF7C7FE0E4D49
:1009F0004FF480464FF4963731462846FFF7BCFE49
:100A0000504601F05FF931462846FFF7B7FE641CF7
:100A1000BC42F1D341464846BDE8F047FFF7AEBEC1
:100A20000010014000140140000C01402DE9F0418C
:100A3000094D074600244FF4A0762022214638466F
:100A400000F030F8A868808801198CB22044B042C8
:100A5000F3D9BDE8F08100001801002008B54FF679
:100A6000FF70ADF8000003208DF8020004208DF81F
:100A7000030069460148FFF7F7FD08BD0018014073
:100A800008B54FF6FF70ADF8000003208DF80200A6
:100A900010208DF8030069460148FFF7E5FD08BD09
:100AA00000180140064B30B49B68203AD2B21C6853
:100AB000DB88534304EB430230BC00F039B800003C
:100AC000180100202DE9F04180460D4600240A4E11
:100AD0004FF4A0770BE021464046FFF7E3FFB068F4
:100AE000808801198CB22044B84203D86D1C2A7842
:100AF000002AF0D1BDE8F081180100202DE9F04175
:100B000000240A4D0746042604EBC40005EBC0028E
:100B100004EB440006EBC00081B2384600F048F810
:100B2000641CA4B20D2CEFD3BDE8F08108A000082E
:100B30002DE9F74F064690460027019900F044FA48
:100B40001A4D2CE001F0D6F800244FF00C094FF0BC
:100B5000800A4FF0010B17E0B0FBF9F1CA000AFA66
:100B600002F138F817202141114201D10C2805D992
:100B70000BFA04F10A4203D10C2801D9688800E07D
:100B8000288801F09FF8641CA8688088A042E3D8F8
:100B9000761CF6B23046019900F016FA7F1CA86860
:100BA000C088B842CED8BDE8FE8F000018010020F2
:100BB0002DE9F74F00258046019900F005FADFF88E
:100BC00060A04FF0800B00BF01F094F8002605EB09
:100BD0004509002409EB06070298C15D2BFA04F0D1
:100BE0000142504619D0008801F06CF8641C082CB2
:100BF000F2D3761C032EECD34FF480710948FFF733
:100C0000BDFD08F10100C0B28046019900F0DCF999
:100C10006D1C182DD8D3BDE8FE8F4088E4E7000096
:100C20001801002000100140014880687047000052
:100C30001801002070B50024FFF7F6FF0546E11CFF
:100C4000E8884843C0B2FFF7F1FE641CE4B20C2C04
:100C5000F5D3BDE8704000F001B8000008484FF639
:100C6000FF7181800021C180018141818181C18129
:100C70000122027041708170C170018270470000D2
:100C8000B400002010B5FFF7E9FFBDE8104040F6C2
:100C90002100FFF795BE70B505468AB01F2000F011
:100CA0008DF9FFF7C1FF0446002069464FF4A0729A
:100CB000202302E00B54401CC0B2A688B2FBF6F61B
:100CC000761E8642F6DCA088B2FBF0F008440021D4
:100CD00000F8011CE0886946C0F1F000C0B2FFF7DF
:100CE000F1FEE0882946C0F1F000C0B2FFF7EAFE4D
:100CF00040F6210000F062F90AB070BD70B588B00E
:100D00000646054600241C216846FFF756FA00E017
:100D1000641C15F8010B0028FAD11A2C00D91A24EA
:100D2000002020216A461154401C1B28FBD30021BF
:100D3000C4F11B0004E0735C01EB5005491C5355E2
:100D4000A142F8D340F621052846FFF739FE1648A0
:100D500000F06CF9FFF768FF4FF6FF7000F07EF9C6
:100D60001F2000F02BF911A10020FFF7ABFE1A485D
:100D700000F05CF9FFF758FF0446C0886946C0B22E
:100D8000FFF7A0FE694615A006F09AFCE088400631
:100D9000000EFFF74BFE284600F010F9024800F065
:100DA00045F908B070BD00003401002020205757DD
:100DB000572E41524D4A495348552E434F4D2020FE
:100DC000535A2D49562D53544D33324631303756F0
:100DD00043202020000000002C0100200A202D2D9F
:100DE0002D2D2D2D2D202573202D2D2D2D2D2D2D0F
:100DF000200A00002DE9F0470024FFF715FF234DDE
:100E00000646234F68890B281AD22989884217D3AE
:100E100000EB800101EBC00007EB8000408E00F08A
:100E20001DF96889F28800EB800101EBC00107EB36
:100E30008101BDE8F047C01C4243D0B2FFF742BE7B
:100E40002989884201D20C3080B20B3885B2B8466D
:100E50004FF00C096119B1FBF9F209FB121000EB1C
:100E6000800101EBC00108EB8107788E00F0F6F8F5
:100E7000F088E11C4843C0B23946FFF723FE641CEA
:100E8000E4B20C2CE6D3BDE8F0870000B4000020EB
:100E90005E1200202DE9F84F0121782000F0FEFFBE
:100EA0004FF6FF70ADF8000003208DF8020010200F
:100EB0008DF8030069461C48FFF7D6FBDFF86CA0ED
:100EC0004FF48044ADF8004069465046FFF7CCFB34
:100ED000DFF85C80A511ADF8005069464046FFF789
:100EE000C3FBDFF850906610ADF8006069464846D5
:100EF000FFF7BAFB6700ADF8007069464846FFF798
:100F0000B3FB29464046FFF739FC21465046FFF720
:100F100035FC39464846FFF731FC31464846FFF775
:100F20002DFCBDE8F88F000000180140000C0140C6
:100F300000100140001401402DE9F047DFF86CA0DB
:100F400080464FF4807949465046FFF715FC184D0E
:100F50004FF4005421462846FFF70EFC154F66005B
:100F600031463846FFF708FC4146DFF84C804046E2
:100F7000FFF706FC31463846FFF700FC21462846BD
:100F8000FFF7FCFBA40021462846FFF7F5FB2146AE
:100F90002846FFF7F3FB4046FFF7E4FB04464946CB
:100FA0005046FFF7EBFB2046BDE8F08700100140FC
:100FB00000140140000C0140001801400149488024
:100FC000704700001801002070B5044616480D4611
:100FD0008188A1F50942893A06D121464E2000F0C8
:100FE000B3FE29464F201AE08188A1F51342203A2A
:100FF00008D12146202000F0A7FEA5F23F15684247
:1010000081B20BE08088A0F519411939E5D0294655
:10101000202000F099FEA4F23F1461422120BDE897
:10102000704000F091BE0000180100200149886066
:10103000704700001801002010B51446FFF7C4FFE8
:1010400000F058FE204600F03DFEBDE810404FF491
:1010500080710148FFF792BB0010014001490880F0
:1010600070470000180100202DE9F04F8DB01822C4
:10107000FAA106A8FFF788F81822FEA16846FFF734
:1010800083F8FFF707FF012005F012FA0121002085
:1010900000F05AFE012005F00BFAFFF7DFFC0120FB
:1010A00005F006FA0020FFF747FFF84CA08000206B
:1010B000FFF742FFA080A188F5A006F001FBA08801
:1010C000302101EB10308DF80F00A088C0F3032011
:1010D00030308DF81000A088C0F3031030308DF848
:1010E0001100A08800F00F0030308DF81200FFF7DB
:1010F000C7FC012005F0DCF9A08848F68916B0424B
:1011000002D1F1A006F0DCFAA08849F22537B842F6
:1011100002D1F3A006F0D4FAA0884FF4E06940F2BF
:10112000077540F23F1A4FF4887B49F22838B842DD
:1011300002D0A08840457DD143F20801E32000F0B1
:1011400003FE1221E72000F0FFFD41F23121EF20E4
:1011500000F0FAFD0121002000F0F6FD4FF480714F
:10116000012000F0F1FD4946022000F0EDFD41F2C2
:101170003001032000F0E8FD0021042000F0E4FD30
:1011800040F20721082000F0DFFD0021092000F0D7
:10119000DBFD00210A2000F0D7FD01210C2000F02A
:1011A000D3FD00210D2000F0CFFD00210F2000F025
:1011B000CBFD0021102000F0C7FD0721112000F019
:1011C000C3FD0021122000F0BFFD0021132000F01C
:1011D000BBFD052005F06CF9052005F069F941F229
:1011E0009051102000F0B0FD40F22721112000F0B6
:1011F000ABFD052005F05CF9052005F059F99C21AF
:10120000122000F0A1FD052005F052F9052005F09F
:101210004FF94FF4C851132000F096FD23212920E7
:1012200000F092FD0E212B2000F08EFD052005F030
:101230003FF900E09FE0052005F03AF90021202069
:1012400000F082FD0021212000F07EFD052005F048
:101250002FF9052005F02CF90721302000F074FD4E
:101260002946312000F070FD0621322000F06CFD8F
:1012700040F20471352000F067FD41F6047136201C
:1012800000F062FD0421372000F05EFD00213820CF
:1012900000F05AFD40F20671392000F055FD40F291
:1012A00001713C2000F050FD0F213D2000F04CFD6D
:1012B000052005F0FDF8052005F0FAF80021502082
:1012C00000F042FDEF21512000F03EFD00215220B0
:1012D00000F03AFD5146532000F036FD4FF427410F
:1012E000602000F031FD0121612000F02DFD002182
:1012F0006A2000F029FD0021802000F025FD00215A
:10130000812000F021FD0021822000F01DFD002140
:10131000832000F019FD0021842000F015FD00213C
:10132000852000F011FD1021902000F00DFD4FF4FC
:10133000C061922000F008FDA08840450FD1032134
:10134000932000F001FD5946952000F0FDFC00219E
:10135000972000F0F9FC0021982000F0F5FC40F205
:101360003311072000F0F0FC0021202000F0ECFCFD
:101370000021212087E2A088A0F5134120396BD0FD
:10138000A088B0F5134FFAD0A0884FF40177A0F5EC
:101390001341313961D141F21401E72000F0D4FC4E
:1013A0004FF48071012000F0CFFC391F022000F0C3
:1013B000CBFC41F23001032000F0C6FCB91E08202E
:1013C00000F0C2FC0021092000F0BEFC00210A2030
:1013D00000F0BAFC00210C2000F0B6FC00210D202A
:1013E00000F0B2FC00210F2000F0AEFC0021102024
:1013F00000F0AAFC0721112000F0A6FC0021122019
:1014000000F0A2FC0021132000F09EFC052005F056
:101410004FF841F29061102000F096FC40F2272135
:10142000112000F091FC022005F042F80C2112205E
:1014300000F08AFC022005F03BF84FF40061132015
:1014400000F082FC1121292000F07EFC0B212B20D2
:1014500000F07AFC02204FE0D4E084E1202077778E
:10146000772E61726D6A697368752E636F6D2020C7
:1014700000000000204C43442044726976657220CD
:1014800049443A393332302000000000180100206E
:101490000A0D20232323232323207777772E6172BD
:1014A0006D6A697368752E636F6D20446576696334
:1014B000654964436F6465203D203078257820239A
:1014C00023232323232000000A0D2054686973205E
:1014D0004C4344206973205353443132383920003F
:1014E0000A0D2054686973204C43442069732069B5
:1014F0006C6939333235200004F0DAFF00212020F6
:1015000000F022FC0021212000F01EFC00213020F0
:1015100000F01AFC4FF483763146312000F014FCC1
:101520000021322000F010FC3946352000F00CFC80
:1015300041F20A61362000F007FC2946372000F00E
:1015400003FC3146382000F0FFFB2946392000F02B
:10155000FBFB40F202413C2000F0F6FB40F60F415D
:101560003D2000F0F1FB0021502000F0EDFBEF21C9
:10157000512000F0E9FB0021522000F0E5FB51462C
:10158000532000F0E1FB4FF41C51602000F0DCFB25
:101590000121612000F0D8FB00216A2000F0D4FB7B
:1015A0000021802000F0D0FB0021812000F0CCFB46
:1015B0000021822000F0C8FB0021832000F0C4FB42
:1015C0000021842000F0C0FB0021852000F0BCFB3E
:1015D0001021902000F0B8FB4FF4C061922000F081
:1015E000B3FB2121072000F0AFFB022004F060FFD5
:1015F0006121072000F0A8FB022004F059FF40F20F
:1016000033115AE2A188FEA006F05AF80121002009
:1016100000F09AFB4FF48071012000F095FB4946E1
:10162000022000F091FB41F21801032000F08CFB36
:101630000021042000F088FB40F20221082000F085
:1016400083FB0021092000F07FFB00210A2000F02D
:101650007BFB01210C2000F077FB00210D2000F026
:1016600073FB00210F2000F06FFB052004F020FF2A
:1016700040F20111072000F067FB052004F018FF7D
:101680004FF48651102000F05FFB0721112000F07D
:101690005BFB5D465946122000F056FB4FF430616B
:1016A000132000F051FB0021292000F04DFB44F2F3
:1016B00010012B2000F048FB0021502000F044FBDB
:1016C000EF21512000F040FB0021522000F03CFBB4
:1016D0005146532000F038FB4FF41C51602000F0BD
:1016E00033FB0121612000F02FFB00216A2000F074
:1016F0002BFB0021802000F027FB0021812000F03F
:1017000023FB0021822000F01FFB0021832000F03A
:101710001BFB0021842000F017FB0021852000F036
:1017200013FB1021902000F00FFB0021922000F00D
:101730000BFB0121932000F007FB2946952000F0C8
:1017400003FB0021972000F0FFFA0021982000F011
:10175000FBFA052004F0ACFE40F27311072000F004
:10176000F3FA0520ADE1A0884FF4004BA0F5194134
:101770004FF4407819397CD10621282000F0E4FA92
:101780000121002000F0E0FA0021102000F0DCFA36
:1017900047F2EF21012000F0D7FA4FF4C061022098
:1017A00000F0D2FA46F63821032000F0CDFA46F6D2
:1017B0007401112000F0C8FA00210F2000F0C4FAD3
:1017C00045F208310B2000F0BFFA03210C2000F095
:1017D000BBFA0A210D2000F0B7FA4FF438510E2061
:1017E00000F0B2FABE211E2000F0AEFA59462520C4
:1017F00000F0AAFA4FF4F041262000F0A5FA782173
:10180000272000F0A1FA00214E2000F09DFA0021CF
:101810004F2000F099FA40F6D901122000F094FA16
:101820000021302000F090FA4FF48271312000F056
:101830008BFA4FF48071322000F086FA40F20536C0
:101840003146332000F080FA40F20551342000F098
:101850007BFA3146352000F077FA2946362000F031
:1018600073FA4146372000F06FFA4FF490513A2056
:1018700000E009E000F068FA4FF400613B2000F05E
:1018800063FA33210720D4E1A088A0F5A8510539D7
:101890007ED1072000F058FA022004F009FE4FF430
:1018A0008E71122000F050FA0121A42000F04CFAB1
:1018B0000F21082000F048FA08210A2000F044FA1D
:1018C00008210D2000F040FA2946302000F03CFAB3
:1018D0000721312000F038FA40F20361322000F095
:1018E00033FA4E464946332000F02EFA40F20221E8
:1018F000342000F029FA0221352000F025FA41F6C3
:101900000F71362000F020FA2946372000F01CFA2B
:101910000021382000F018FA0021392000F014FAD4
:1019200029463A2000F010FA00213B2000F00CFA82
:1019300007213C2000F008FA00213D2000F004FAC5
:10194000022004F0B5FD0121072000F0FDF901217E
:10195000172000F0F9F9022004F0AAFD4FF4BD5160
:10196000102000F0F1F940F21721112000F0ECF9FD
:101970004FF48F71122000F0E7F94FF470611320DB
:1019800000F0E2F900212A2000F0DEF90A2100E04F
:101990009AE0292000F0D8F94FF49F71122000F04E
:1019A000D3F90021502000F0CFF9EF21512000F0B1
:1019B000CBF90021522000F0C7F95146532000F026
:1019C000C3F94FF41C51602000F0BEF901216120E1
:1019D00000F0BAF900216A2000F0B6F90021802059
:1019E00000F0B2F90021812000F0AEF90021822040
:1019F00000F0AAF90021832000F0A6F900210BE0F5
:101A00000A0D2054686973204C434420697320698F
:101A10006C6925782E000000842000F095F90021E3
:101A2000852000F091F91321902000F08DF94146B6
:101A3000922000F089F90521932000F085F900211A
:101A4000952000F081F90021972000F07DF9002118
:101A5000982000F079F94FF48071012000F074F9BA
:101A60003146022000F070F941F23001032000F00D
:101A70006BF90021042000F067F900210C2000F030
:101A800063F900210F2000F05FF90021202000F011
:101A90005BF90021212000F057F92121072000F0F7
:101AA00053F9022004F004FD6121072000F04CF9F5
:101AB000022004F0FDFC40F27311072000F044F90D
:101AC000022004F0F5FCBBE0A088B0427ED10121E9
:101AD000002000F039F94AF6A401032000F034F99F
:101AE00000210C2000F030F940F60C010D2000F030
:101AF0002BF94FF42C510E2000F026F9B0211E20B6
:101B000000F022F942F63F11012000F01DF94FF4D8
:101B1000C061022000F018F90021102000F014F933
:101B200046F27801112000F00FF90021052000F0A5
:101B30000BF90021062000F007F94EF61C71162063
:101B400000F002F90321172000F0FEF840F23321E3
:101B5000072000F0F9F800210B2000F0F5F8002133
:101B60000F2000F0F1F80021412000F0EDF80021F5
:101B7000422000F0E9F80021482000F0E5F8564640
:101B80005146492000F0E0F800214A2000F0DCF83E
:101B900000214B2000F0D8F84FF46F41442000F0B2
:101BA000D3F80021452000F0CFF83146462000F060
:101BB000CBF82946302000F0C7F83946312000F034
:101BC000C3F83946322000F0BFF800E034E040F2BC
:101BD00002552946332000F0B7F8691D342000F083
:101BE000B3F83946352000F0AFF83946362000F01A
:101BF000ABF82946372000F0A7F840F20235294615
:101C00003A2000F0A1F829463B2000F09DF8002181
:101C1000232000F099F80021242000F095F859467F
:101C2000252000F091F800214E2000F08DF80021D1
:101C30004F2000F089F803E0A18816A005F040FDD0
:101C4000012004F035FC4FF4FC60FEF7B9FE4FF6BE
:101C5000E07020804FF478406080A06806A9C088BA
:101C600000EB8000C0B2FEF72DFFA0686946C08877
:101C700000EB40004006000EFEF724FFA068C0887D
:101C80004006000EFEF73AFF782004F011FC0DB07C
:101C9000BDE8F08F0A0D2023232323232320457240
:101CA000723A20556E6B6E6F772044657669636576
:101CB0004964436F646520307825782023232323EB
:101CC0002323200070B5094E04464FF48045294671
:101CD0003046FEF751FD21460548FEF751FD2946E5
:101CE0003046BDE87040FEF749BD0000000C0140E1
:101CF000001801402DE9F0414FF480710E48FEF7C5
:101D00003BFD0E4D4FF4005421462846FEF734FDAE
:101D10000B4F660031463846FEF72EFD222109485A
:101D2000FEF72EFD31463846FEF728FD21462846AF
:101D3000BDE8F041FEF722BD001001400014014053
:101D4000000C0140001801402DE9F05F1B4D824658
:101D50008B464FF4807421462846FEF70DFD184F40
:101D6000660131463846FEF707FDDFF858904FF41C
:101D7000804841464846FEF7FFFC5146DFF848A040
:101D80005046FEF7FDFC41464846FEF7F7FC31465B
:101D90003846FEF7F3FC41464846FEF7EDFC59464F
:101DA0005046FEF7EDFC41464846FEF7E7FC21466B
:101DB0002846BDE8F05FFEF7E1BC000000100140DE
:101DC00000140140000C014000180140FEE770477C
:101DD00070B50F21C478027801234FF0E026E4B1FA
:101DE000124C246804F4E064C4F5E064C4F30724EE
:101DF000C4F10405E1404478AC4085780D402543AA
:101E00000B4C29011155007800F01F018B4040094F
:101E100006EB8000C0F8003170BD02F01F00834067
:101E2000500906EB8000C0F8803170BD0CED00E079
:101E300000E400E0024908430249086070470000DE
:101E40000000FA050CED00E0024A1140014302488F
:101E50000160704780FFFF1F08ED00E0014801F0BE
:101E6000F2BC00004001002070470000044A002935
:101E7000516901D0014300E0814351617047000086
:101E800000100240044A0029D16901D0014300E05A
:101E90008143D1617047000000100240044A0029CC
:101EA000916901D0014300E08143916170470000D6
:101EB0000010024070B52D494A682D4B12F00C02FB
:101EC00004D02C4D042A03D0082A03D0036029E053
:101ED000056027E04A684B6802F47012920C03F424
:101EE00080330D2A01D0921C00E00622BBB1CB6AE0
:101EF000CC6A13F4803F04F00F0404F101040AD00B
:101F0000CB6AC3F30316CB6A761CB5FBF6F5C3F3B5
:101F100003239B1C5D43B5FBF4F35343D6E7164BF9
:101F20005A4302604A68154B02F0F00212099C5CA9
:101F30000268E24042604C6804F4E064240A1C5DDC
:101F400022FA04F484604C6804F46054E40A1B5DD3
:101F5000DA40C2604968094B01F44041890B1B1FFC
:101F6000595CB2FBF1F1016170BD0000001002404C
:101F700000127A0040787D0100093D00E000002059
:101F80000149086070470000D80042420248A0F1B1
:101F90000C018860FFF768B824010020F8B50E46F0
:101FA000044627492648091D50F8240051F82410FA
:101FB000084340F001000121FFF770FF204D2D1F65
:101FC0009CB355F824000121FFF768FF18208DF815
:101FD00003001B486946083830F81400ADF80000CB
:101FE00003208DF80200174850F82400FEF73CFB50
:101FF00004208DF8030012486946801F30F8140051
:10200000ADF800000F48001D50F82400FEF72CFB2F
:102010000C4D31462D1F55F8240000F057FB55F8A4
:102020002400012100F040FBF8BDFFE7012108205A
:10203000FEF76CFB01212868FFF724FFC6E70000CC
:10204000EC7B0008F400002038B504460C48012160
:1020500050F82400FFF722FF094869460A3830F893
:102060001400ADF8000010208DF8030003208DF857
:102070000200044850F82400FEF7F6FA38BD0000CC
:102080001C7C0008FC000020044951F82010CA689C
:10209000034B33F810004240CA607047FC00002038
:1020A000127C00080349044A31F8101052F820004D
:1020B000FEF75BBBF47B00080C0100207FB50446F3
:1020C00025480D46012150F8240040F00100FFF79B
:1020D000E5FE04208DF80F001F4803A9383830F8BA
:1020E0001400ADF80C001D4850F82400FEF7BCFAAF
:1020F000012D2FD11848263830F81400C1B21648E7
:102100002C3830F81400C0B2FEF79AFA1248323870
:1021100030F81400009000208DF804000CB10C2061
:1021200000E008208DF8050001258DF8065068466E
:10213000FEF782F90848203830F814008DF80800BE
:102140000F208DF809008DF80A008DF80B5002A8B9
:10215000FFF73EFE7FBD00002C7C00080C01002034
:102160007047000029480021026842F48032026072
:102170004FF4A063026801F1010112F4003F01D1A4
:102180009942F7D1016889033FD521490A6842F095
:1021900010020A600A6822F003020A600A6842F02C
:1021A00002020A604168416041684160416841F44F
:1021B00080614160C16A174A1140C162C16A164A12
:1021C0001143C162016841F0806101600168090149
:1021D000FCD5416821F47C114160416841F4E8116B
:1021E0004160016841F08071016001688901FCD59E
:1021F000416821F003014160416841F00201416002
:102200004168C1F381010229FAD1704700100240F0
:102210000020024000F0FEFF440601002DE9F84FC7
:1022200000206F49ADF80000044605464FF4007ADF
:102230006B465246A1F5097004F07AFC014669A08C
:1022400005F03EFADFF898916DA04F46B9F812609C
:10225000B9F816803146424605F032FABF8B73A0BA
:10226000394605F02DFA3621A9F5097004F0DFFA98
:102270004FF4A0718E4201D8884507D973A005F0AC
:102280001FFA78A0FEF73AFDBDE8F88F182F5BD053
:10229000102F70D0F8E752496B464FF4FF72A1F54A
:1022A000097004F045FCBDF800100029ECD00028AE
:1022B000EAD1464507461FD342E000BF09EB0701BC
:1022C00019F807008A78497802F0F802120201F042
:1022D000FC0142EAC10141EAD002C4F1EF00C0B200
:1022E0002946FEF7A9FE641CA4B2B44202D300241E
:1022F0006D1CADB2FF1CBFB2BDF80000874223D2F7
:10230000DCE700BF09EB070119F807008A78497874
:1023100002F0F802120201F0FC0142EAC10141EAB6
:10232000D002C4F1EF00C0B22946FEF785FE6D1C55
:10233000ADB2B54202D30025641CA4B2FF1CBFB2EB
:10234000BDF800008742DDD34C48FEF759FA00285B
:10235000A1D199E722496B465246A1F5097004F0D4
:10236000E7FBBDF8001000298ED000288CD146452F
:10237000074613D32AE02DE009EB0700294602881F
:10238000C4F1EF00C0B2FEF757FE641CA4B2B44221
:1023900002D300246D1CADB2BF1CBFB2BDF800005B
:1023A000874217D2E8E700BF09EB070029460288F9
:1023B000C4F1EF00C0B2FEF73FFE6D1CADB2B542F6
:1023C00002D30025641CA4B2BF1CBFB2BDF800003C
:1023D0008742E9D32948FEF713FA0028BAD153E718
:1023E000C40B00200A20665F726561642066696C18
:1023F000652072657475726E2069732025642E00E5
:102400000A2050696374757265576964746820693D
:10241000732025642C205069637475726548656962
:102420006768742069732025642E00000A205069B3
:10243000637475726542697473506572506978652A
:102440006C2069732025646270702E000A20506928
:10245000637475726520746F6F204C617267652EAE
:1024600000000000205069637475726520746F6FFE
:10247000204C617267652E2E000000004001002094
:1024800070B521484168214B11F00C02204904D05D
:10249000204C042A03D0082A03D00B6029E00C60EA
:1024A00027E04268436802F47012920C03F4803310
:1024B0000D2A01D0921C00E00622BBB1C36A13F4BE
:1024C000803FC36A03F00F0303F101030AD0C56A1A
:1024D000C66AC5F303156D1CB4FBF5F4C6F30326F9
:1024E000B61C7443B4FBF3F35343D6E70A4B5A4389
:1024F0000A604068064AC0F30310121D105C0A68A7
:10250000C2400A6070BD00000010024000127A0054
:10251000C800002040787D0100093D00144810B536
:10252000016841F0010101604168124A11404160B7
:102530000168114A11400160016821F480210160A5
:10254000416821F4FE014160016821F0A051016061
:102550004FF47F0181600021C1624FF41F0181604F
:10256000FFF700FE05494FF00060086010BD000055
:10257000001002400000FFF0FFFFF6FE08ED00E053
:1025800002F078B80029018802D041F0800101E012
:1025900021F0800101807047C94301827047002902
:1025A000018802D041F0010101E021F00101018028
:1025B0007047038A002280890B4200EA010001D0A3
:1025C00000B1012210467047002A828901D00A43D7
:1025D00000E08A438281704730B502881B4B1C4C57
:1025E00098420DD0A0420BD0B0F1804F08D0194DC9
:1025F000A84205D0184DA84202D0184DA84203D1D8
:1026000022F070054A882A43154DA84206D0154D80
:10261000A84203D022F44075CA882A4302808A88DF
:1026200082850A88028598420AD0A04208D00E4AC4
:10263000904205D00D4A904202D00D4A904201D1FD
:10264000097A01860121818230BD0000002C014001
:10265000003401400004004000080040000C00402D
:1026600000100040001400400040014000440140C0
:102670000048014010B50B4C6068401C6060B0F130
:10268000011F0DD10020FFF7FFFC0120FFF7FCFC2C
:102690000220FFF7F9FC0320FFF7F6FC0020606042
:1026A00010BD0000040000200029818902D041F4FF
:1026B000005101E021F40051818170470246002061
:1026C00012880A4200D001207047000030B504464D
:1026D000008A85B00D464CF6FF710840E988014339
:1026E0002182A1894EF6F3100140A8882A8910435F
:1026F0006A890A431043A081A08A4FF6FF4108402F
:10270000A9890143A1826846FFF7D4FB1B48844294
:1027100001D1039800E00298A1890904002900EB87
:10272000C00101EB0010296802DA4FEA410101E023
:102730004FEA8101B0FBF1F06422B0FBF2F14FEA05
:1027400001114FEA11136FF018056B4300EB830082
:10275000A3891D044FF0320306D503EBC000B0FB84
:10276000F2F000F0070005E003EB0010B0FBF2F020
:1027700000F00F000843208105B030BD0038014053
:10278000C1F308018180704710B500224FF6FF7336
:1027900000EB4204B4F88C45240409D49A4205D0D5
:1027A00000EB420041F40041A0F88C15D0B210BDFE
:1027B000521CD2B2082AEBD31A46F7E770B50D4681
:1027C000194600EB4114012384F8AE33C4E9EE52FC
:1027D00094F8C42302B1022284F8B423FEF718F857
:1027E000002070BD70B50D46194600EB4114002362
:1027F00084F8AE33C4E9EE5294F8C52332B1022214
:1028000084F8B423FEF704F8002070BD84F8B433D4
:10281000F8E730B402240C7501244C750024CC82F6
:102820000A8315064C8300EB431202D582F8C44399
:1028300001E082F8C543002330BC1A4600F017B807
:102840000121C0F810130020704770B50D461946DD
:1028500000EB411404F56B740123A3704FF00203E5
:102860002372C4E90352FDF7D3FF002070BD30B5D9
:102870000120CD780446012D0BD0022D08D10A7F0E
:102880000D2A10D00B2A12D00C2A01D1CC700320B3
:1028900030BD0D784D7007250D708A608B810C77E7
:1028A0000222CA7030BDCC700020087730BDCC70D9
:1028B000022030BD70B50D46194600EB41140023CF
:1028C00084F8AE33C4E9EE521AB194F8C5235AB174
:1028D00002E0012284F8C523022284F8B42300BF59
:1028E000FDF796FF002070BD84F8B433F8E710B50B
:1028F0000C46114600EB411303F56B7300229A70EE
:102900004FF003021A724FF00802C3E90342FDF7C9
:102910007FFFC0B210BD0221002200EB4103491C21
:10292000C9B2A3F88C250829F7D30020704770B5E9
:102930000C46002121706170A17001220546E270F1
:1029400022774020A07184F8201084F8212021797A
:10295000284600F021F86179284600F01DF8002093
:1029600070BD0021C0F810130846704770B50A25E5
:10297000044605290AD0042908D006290BD1257060
:10298000D0F880000068BDE870400047D4F88000AF
:10299000406C8047257070BD082908D200EB4101CA
:1029A00001F28C50B1F88C15C1F30E0101800020AA
:1029B000704730B442F08002DDE902540A75062205
:1029C0004A750322CB82B2EB132F02D140F20942A7
:1029D00000E000220A834C8323462A4630BCFFF7DE
:1029E00046BF0A8803781A440A8001780844704771
:1029F0002DE9FC47174600F58878CDE900870024CB
:102A000006460D464FF400732246FFF7D2FF5FEAF9
:102A1000000907D013E0311991F810110155641C19
:102A2000A4B200E00748BC42F5D3434605F150028A
:102A300005F13E0105F13400009700F08BFF484698
:102A4000BDE8FC87C40D00207CB50446164600F5A1
:102A50008870CDE900060D464FF4807300222046B1
:102A6000FFF7A7FF002830D104F58874082E2178DD
:102A700005F8221F61786970A178E27801EB0221E4
:102A800069802179297161796971A179A971E179E7
:102A9000A4F58874E97118D904F58C7421786278EA
:102AA00001EB02212981A178E27801EB0221698101
:102AB0002179627901EB0221A981A179A973E179D8
:102AC000E973217A2974617A69747CBD7CB51E46EC
:102AD000069D00F5887442F440730022CDE900455C
:102AE000FFF767FF010014D16078032811D1207827
:102AF000821EAA4200DC1546A41CAAB2002004E0F3
:102B0000235C801C06F8013B80B29042F8D3002081
:102B1000307008467CBD00002DE9F05F00260C46B1
:102B20008E748046097F0B2509270120DFF8B891B4
:102B30004FF0080B4FF0050A0C2917D2DFE801F01F
:102B4000D1060E39415A677B84A3B4C4627904F17B
:102B500014014046FFF7CBFE0220BBE061794046FE
:102B6000FDF71AFE012802D003281ED0B9E0207D0F
:102B7000618B00F0800051B141F28832A9F8002049
:102B8000802802D084F81CA008E0032005E032224F
:102B9000A9F80020802806D0072020774046FDF7BE
:102BA000F1FD20829DE02777F8E7257784F812A0D1
:102BB00097E02379A2894046A168FFF746FE0420EA
:102BC00088E021794046FDF7E7FD01280DD0042873
:102BD0000DD0032876D04046FDF7D4FD218A411A56
:102BE000B9F8000081426DD87BE02777F3E7607881
:102BF000207076E0627908EB421181F8C5036379B1
:102C0000A2894046A168FFF755FE062062E061797F
:102C10004046FDF7C1FD012804D0042804D0022855
:102C200006D049E0072055E0607820700C2051E084
:102C300084F81CA055E00022237911464046FFF796
:102C400004FE84F81CB04CE021794046FDF7A4FD59
:102C5000074601280DD0032F34D04046FDF792FDE2
:102C6000218A411AB9F8000081422BD8042F04D0E0
:102C700037E0607820700D202CE060782070042010
:102C8000A07403262DE06179002208EB411090F832
:102C9000C51381F0010180F8C513637911464046E0
:102CA000FFF708FE0A2015E061794046FDF774FD44
:102CB0000128DED0022803D0032803D011E001E070
:102CC00027770EE025770CE0A17B491CC9B2A173E0
:102CD000022901D8207704E084F812B060782070CF
:102CE00002263046BDE8F09F780000202DE9F04133
:102CF0000C468046012689780025FF2092B0374691
:102D00000A2956D2DFE801F0052332565F71849B11
:102D1000AEB8082221464046FFF796FE002848D16B
:102D200094F82900A0714046FDF76DFDA770A079C9
:102D30000023CDE9005061791A46404600F06AFD53
:102D4000A0790023CDE9005021791A462EE0122205
:102D500021464046FFF778FE00282AD1D4F88000AB
:102D6000C16904F122008847022083E00122214644
:102D7000404600F04FFF00287FD1022001F096FC72
:102D800004F104042777E06F006A8047032004F809
:102D9000020C00950195227F21780023404600F027
:102DA00039FD00950195227F61780023404600F0AF
:102DB00031FD62E0092221464046FFF719FE002856
:102DC0005BD1042056E0E28E21464046FFF710FE1C
:102DD000A0BBD4F8800004F1500204F13E01436A24
:102DE00004F134009847052044E094F8302006258B
:102DF00052B1009002AB21464046FFF767FEE8B9AA
:102E0000D4F88000816A11E0D4F88000816A12E071
:102E100094F8312007255AB1009002AB2146404674
:102E2000FFF754FE50B9D4F88000C16A02A803E04D
:102E3000D4F88000C16A13A08847A5701DE094F8FB
:102E40003220082552B1009002AB21464046FFF7E0
:102E50003DFE90B9D4F88000016BE7E7D4F880001C
:102E6000016BE8E794F839202146404600F0DEFE89
:102E700018B90920A07000E0002612B03046BDE865
:102E8000F08100004E2F41002DE9F04180460E46B2
:102E900014461D46069F01F0C9FB002001F088FB87
:102EA00021464046FFF743FD04F17C043146C4E966
:102EB00000574046FDF779FC60680068804740464F
:102EC000BDE8F04101F09EBB70B505460A4C0120FB
:102ED00012B1012A08D102E02378E27801E0637898
:102EE000A2782846FFF795FC044A1169491C116134
:102EF000042900D9042070BD141200207C00002099
:102F000001490020087070470412002070B5054682
:102F10000124FDF775FCD8B1104801782846FDF76B
:102F20003FFC0D2813D10E480E4A016891420ED184
:102F3000A0F1200241685268914209D1007B20B182
:102F4000012805D0022802D002E0002400E002247B
:102F500003481030C473204670BD000014120020D6
:102F6000F4110020555342530A490A22012802D085
:102F700002280CD07047084B1878401CC0B218705B
:102F80000A2804D2062008700120C87070470A7011
:102F90007047000004120020900000202DE9F05F2F
:102FA0000E4681460125FDF72BFC002816D0524C19
:102FB0000027DFF8488120784FF0080BAA460B283D
:102FC0000CD2DFE800F0060C245D66717981864F33
:102FD0009500484600F0A4F984F800A089E0212279
:102FE0003275FF227275F7823783002348463146D7
:102FF00077831A46FFF73BFC05004FF0020002D032
:10300000032D02D075E0207073E0607028E0A122EB
:103010003275FE227275F78237834846314657462D
:10302000A6F81AA00123364AFFF721FC05004FF04D
:10303000030102D0032D12D05BE031480838027A38
:1030400080F8482012B198F801200AB1217050E0B0
:1030500088F80170D6F88000006C804749E0617004
:103060000920D0E77379002231464846FFF7D1FBAB
:1030700005003ED12248083880F848706078C2E7E1
:10308000484600F033FB08B9042008E0FFF76CFF66
:103090002FE0484600F08AFA0028F7D1052020707A
:1030A00088F80070002524E0484600F0C3F90028A5
:1030B000ECD184F800B0F3E7484600F0C7FA0028E6
:1030C000E4D160782070EDE73146484600F01AF808
:1030D0000FE0D6F88000C06B804710F0FF0002D0F0
:1030E000012803D005E084F800B002E0062500E0E6
:1030F00004252846BDE8F09F04120020900000201F
:103100001C1200202DE9F35F0098FDF779FB0028E1
:1031100021D0804C052780482179804D00264FF032
:1031200008094FF0070B4FF002084FF0010A092978
:1031300011D2DFE801F01005123464AABFD5E10016
:10314000744943781F2230390098FFF74BFB84F80D
:1031500005A084F80480BDE8FC9F41780098FDF745
:103160001BFB012806D0022873D00428F3D185F870
:1031700000A0BEE067482E61303884F80580017BEE
:10318000806801F0800100286ED06860A068A860A7
:10319000E860802901D00420BAE00320B8E080462E
:1031A00001780098FDF7F8FA012802D06179032927
:1031B0001FD003202E616071B8F804206868824235
:1031C0000ED298F80030A9680098FFF7F7FAB8F81F
:1031D00004006968091A6960A9680844A860BAE728
:1031E000B0B382B298F80030A9680098FFF7E6FA09
:1031F00038E00428AFD12E7084F804B00EE0804689
:1032000041780098FDF7C8FA012809D002282DD08E
:103210000428A0D185F800A084F8049067719AE78B
:1032200004202E616071B8F806206868824211D2CD
:1032300098F80130A9680098FFF7D4FAA968E96006
:10324000B8F806000144A9606968081A686082E756
:103250000AE05CE040B182B298F80130A9680098B9
:10326000FFF7C0FA6E6076E7277174E7D5E90210C0
:1032700098F80130B8F80620814200D0891A0098E9
:1032800002B0BDE8F05FFFF7ADBA224967711039AF
:103290003F22A160A2810D220B469E54521E12F0C5
:1032A000FF02FAD11E7003783F220098FFF786FADA
:1032B00006202DE001780098FDF76EFA012805D070
:1032C00004288CD12E7084F804B044E72E61677115
:1032D000A0782070DDE90001FFF718FEE0733AE7FF
:1032E000DDE900010022FFF7EFFD58B92878022838
:1032F0000DD184F804902EE7DDE900010122FFF7EB
:10330000E3FD20B104288AD184F80F8023E7607997
:10331000207120E704120020141200207C000020FD
:1033200010B5FDF76DFA002148B10848064A026061
:10333000074A42604173054A01203032D070054887
:1033400001610548017010BD55534243D41100205E
:10335000504030207C0000209000002070B50C4CC4
:1033600006460025617831B101F009FB61783046ED
:10337000FFF712FB65702178002907D0304601F075
:10338000FEFA21783046FFF707FB257070BD00007C
:10339000141200202DE9FC41064691F843000C462A
:1033A000082803D194F84500502806D0D1F88000B1
:1033B000006C80470020BDE8FC8194F852001C4D51
:1033C000010604D5E870B4F85400A88003E0A870A2
:1033D000B4F85400E88094F85A00010604D5E87067
:1033E000B4F85C00A88003E0A870B4F85C00E88042
:1033F000A9783046FFF7C8F96870E9783046FFF7DA
:10340000C3F92870E8880227CDE9007004F1200490
:10341000697863782278304600F072FAA888CDE99E
:103420000070637822782978304600F069FAC1E7A5
:103430001412002070B50324FDF7E2F930B32149DE
:10344000214D0023C8780122012802D0022836D15C
:103450001DE01E483F248026846006730A2686737A
:103460008D6005258D70102546196D1EF37315F0BE
:10347000FF05F9D11A23C3734474C4740A71072079
:1034800008700320C8730220C870032417E0C87BAB
:1034900020B101280ED002280FD010E0A878040631
:1034A0000948A0F1100001D5027300E00373CA704F
:1034B000002404E0CA70012401E0CA7002242046FE
:1034C00070BD000004120020D40F0020D411002091
:1034D0002DE9FF4F324D81B04FF0030985F8009080
:1034E0008B461F460198FDF78BF9D8B32D4C01266A
:1034F0004FF0020AE0784FF00008012802D00228BD
:103500004AD130E028488021876001730A21817305
:103510001021C4F808B04218491E82F80F8011F03B
:10352000FF01F8D12821C1739DF80F1041749DF857
:103530000E1081749DF80D10C1749DF80C1001756A
:10354000790AADF800109DF8011081759DF8001002
:10355000C17526710720207084F80F9084F803A0AD
:1035600085F8009018E0E07B38B90198FDF748F93C
:1035700018B1E67085F800800EE0E07B012805D1E7
:103580000198FDF73DF908B1E67005E0E07B0228FF
:1035900002D1E67085F800A0287805B0BDE8F08F6C
:1035A0007A00002004120020D411002070B50324FA
:1035B000FDF726F920B322490125224AC8780128BF
:1035C00002D002283AD11CE01F4B082098608020CE
:1035D00018730A20987304208A60887010200022D3
:1035E0001C18401EE27310F0FF00F9D12520D8739B
:1035F0000D71072008700320C8730220C8700324CF
:103600001CE0C87B20B1012813D0022814D015E09B
:103610000C48137810380024C37053788370937863
:103620004370D378037093794372D2790272CD706C
:1036300004E0CD70012401E0CD700224204670BD6D
:1036400004120020D40F0020D411002070B50324F0
:10365000FDF7D6F838B322490123224AC878012859
:1036600002D0022839D11FE01F483F248025846002
:1036700005730A2585738A608A784A7006228A70E3
:10368000102200258618521EF57312F0FF02F9D1A0
:103690000322C2730574C4740B7107200870CA73C7
:1036A0000220C870144618E0C87B20B101280FD052
:1036B000022810D011E00B4814781038C4715478E7
:1036C000847194784471D2780271CB70002404E044
:1036D000CB70012401E0CB700224204670BD0000B5
:1036E00004120020D40F0020D411002070B5032450
:1036F000FDF786F810B31A490123C878012802D0D3
:1037000002282BD11BE0174C00220620A260227356
:10371000A073154888603F20888103258D70102094
:103720002618401EF27310F0FF00F9D1E2730B71FE
:10373000072008700220CD73C87003240EE0C87BF8
:1037400020B1012805D0022806D007E0CB70002464
:1037500004E0CB70012401E0CB700224204670BD50
:1037600004120020D4110020F41100207FB582B093
:103770000D461C460326FDF743F8A0B3234A01215A
:10378000D078012802D002283CD12DE02048002327
:103790000A268460037386739560102546196D1E92
:1037A000F37315F0FF05F9D12A23C3739DF8133085
:1037B00043749DF8123083749DF81130C3749DF8E2
:1037C00010300375630AADF800309DF80130837541
:1037D0009DF80030C3751171072010700320D0735D
:1037E0000220D07003260DE0D07B20B1012805D047
:1037F000022805D006E0D170002603E0D17001E078
:10380000D170022606B0304670BD000004120020C0
:10381000D411002070B500EB4114059D0AB184F865
:10382000AC23B4F8B223AA4202D00DB1A4F8B2532B
:1038300094F8AF239A4202D00BB184F8AF3301F071
:10384000BDF8002070BD38B505464FF00004204695
:103850000090284601F0B2F900284FD0284601F028
:10386000B5F90090009808B9002038BD0098C0F361
:10387000C00020B1284602F093F940EA0404009801
:10388000C0F3001020B1284602F0E4F840EA040436
:103890000098C0F3401020B1284601F007FF40EA2D
:1038A00004040098C0F3806020B1284602F034F888
:1038B00040EA04040098C0F3406020B1284601F0BB
:1038C0006CFA40EA04040098C0F3006020B1284676
:1038D00001F08CFF40EA04040098C0F3407020B16E
:1038E000284601F01DFA40EA04040098C0F3405055
:1038F00020B1284601F02CFA40EA04042046B4E73F
:103900002DE9F04100EB410404F28C55B4F88C45EC
:10391000DDE9066C04F07F0700EB411404F56B74DD
:1039200067702D88C5F3C015A57022706671A4F864
:1039300006C0E3704FF0000222766276A4F56B7445
:1039400013B9012284F8B02301F038F80020BDE853
:10395000F08100002DE9FF4F85B0054618781299D7
:1039600028705878687092469878DA781C4600EB90
:1039700002206880187928715A796A719A79AA7137
:10398000DA79EA71227A2A7209296DD90921DFF8D8
:10399000E080ADF80C1002285CD960E003A9204655
:1039A000FFF71FF804464078042853D194F90270B9
:1039B000069807EBC70101EB000BE078032849D21A
:1039C0002146684600F056F89DF8040000260228BB
:1039D00040D83BE003A92046FFF703F804464078AF
:1039E000052833D10AEB071000EBC60998F8000050
:1039F000B84202D088F8007007E02079617900EBC6
:103A00000121B8F80200814224D36946584600F0EB
:103A100031F8217889F80010617889F80110A178CF
:103A200089F80210E17889F8031021796279761C0F
:103A300001EB0221A9F80410A17989F80610207978
:103A4000617976B200EB0120A8F802009DF804002D
:103A5000B042BFDC6888BDF80C1088429ED80021B7
:103A6000A8F8021088F8001009B0BDE8F08F000037
:103A7000640000200A7802704A7842708A78827066
:103A8000CA78C2700A7902714A7942718A79827160
:103A9000CA79C271097A017270472DE9FC410C465E
:103AA0000646FCF7ADFE28B9207818B1022801D0EF
:103AB000022020702078002504F120070B2848D22E
:103AC000DFE800F0061290474965737A5547800099
:103AD0003046FCF795FE00283BD001202070BDE861
:103AE000FC41642000F0E2BDD4F88000806880478B
:103AF00000213046FEF748FE607180213046FEF717
:103B000043FE20713046FCF77EFE002821D104F1EF
:103B10000404E06FC06880473046FCF737FEC0B24F
:103B20006077042104F8041CE16F89698847A07854
:103B3000CDE90050637F227F21783046FFF7E0FE19
:103B4000A078CDE90050637F227F61783046FFF78F
:103B5000D7FEBDE8FC8121463046FFF7C7F80028B4
:103B6000F7D1D4F88000406B804708200DE0D4F8EE
:103B70008000806B80470128EBD1E06F214602680E
:103B8000304690470028E4D105202070E1E7E06F3F
:103B90002146826830469047010001D10620F4E7B3
:103BA0002046BDE8FC41FEF7E1BEE06F2146C26859
:103BB000304690470146F3E721463046BDE8FC41D8
:103BC000FEF7AABF21463046FEF7B1FED4F88000CA
:103BD00040688047E06F3946426802B03046BDE831
:103BE000F0411047D4F880000069804721463046F4
:103BF000FEF79DFED4F8800040688047E06F3946AC
:103C00004268304690473046FEF785FE2570A0E7B3
:103C10000020704730B400230B7505244C75CA8210
:103C20000B834B8330BC1A46FEF721BE30B4002311
:103C30000B7509244C75CA820B834B8330BC1A4622
:103C4000FEF715BE10B54A790C494FF6FF70082AE9
:103C50000AD0032A10D10880094801F0CFFF084894
:103C6000BDE8104003F02CBD08800548213801F064
:103C7000C5FF03482138F3E710BD0000B80000205D
:103C80006C7900080149002008707047040000208A
:103C900070470000064910B54FF6FF7008800548D0
:103CA00001F0ACFFBDE81040024803F009BD000080
:103CB000B80000209C78000810B5FCF7BBFF0EA1EF
:103CC000C620FCF7FFFE0CA1D220FCF7FBFE144C33
:103CD0004FF47840208013A001F090FF11A003F072
:103CE000EFFC124801F08AFF104803F0E9FC4FF6A0
:103CF000FF70208010BD00002020202020202020E8
:103D000020202020202020202020202020202020B3
:103D100020202020202020202020202020200000E3
:103D2000B80000204552524F523A2000B0780008A7
:103D300010B50A4C4FF47840208009A001F05EFFD6
:103D400007A003F0BDFC08A001F058FF06A003F097
:103D5000B7FC4FF6FF70208010BD0000B8000020B7
:103D60004552524F523A20003E20446576696365C1
:103D7000206E6F7420737570706F727465642E009E
:103D800010B5144A4FF6FF7160B1012812D0022815
:103D9000118017D0104801F031FF0F48BDE81040E6
:103DA00003F08EBC0C481180593801F027FF0A48F7
:103DB0005938F3E7084811803B3801F01FFF0648E7
:103DC0003B38EBE704481D3801F018FF02481D3866
:103DD000E4E70000B80000203A79000870B50C4E06
:103DE0004FF6FF750446358001890AA001F006FFF1
:103DF000218908A003F064FC3580618909A001F0E5
:103E0000FDFE6189BDE8704006A003F059BC0000CA
:103E1000B8000020564944203A2025303458680A1A
:103E200000000000504944203A2025303458680AE8
:103E30000000000010B50F484FF6FF7404800E48D4
:103E400001F0DCFE0C4803F03BFC4FF4FC60FDF796
:103E500005F90AA1C620FCF735FE12A1D220FCF715
:103E600031FE1AA003F02CFC2046BDE81040FDF7FF
:103E7000F5B80000B8000020C7780008546F207320
:103E800065652074686520726F6F7420636F6E744F
:103E9000656E74206F6620746865206469736B209A
:103EA0003A2000005072657373204B6579322E2ED4
:103EB0002E202020202020202020202020202020F4
:103EC0002020202020202020000000000A20546F05
:103ED000207365652074686520726F6F7420636F4E
:103EE0006E74656E74206F662074686520646973F3
:103EF0006B203A205072657373204B6579322E2EF9
:103F00002E000000194810B5817800292DD101211B
:103F100081700020FEF798F80120FEF795F8022046
:103F2000FEF792F80320FEF78FF800210220FEF73B
:103F3000C5F8FEF72BF8FCF7A5FE0DA003F0C0FBBB
:103F40001AA003F0BDFB28A0FCF7D8FE2C494FF6C1
:103F5000FF7008802BA001F051FE2AA003F0B0FBF7
:103F6000BDE810402FA0FCF796BE10BD0400002055
:103F70000A203D3D3E2041524D4A49534855C9F122
:103F8000D6DB53544D3332BFAAB7A2B0E5A3AC552C
:103F9000534220484F5354CAB5D1E9D6AE55C5CC8B
:103FA000B5C4B7C3CECA203C3D3D00000A203D3D0C
:103FB0003E20555342B6C1C8A155C5CCC4BFC2BCF2
:103FC000A3AC4C4344CFD4CABE2F4D656469612F66
:103FD000CEC4BCFEBCD0D6D0B5C4424D50CDBCC6BC
:103FE000AC2E203C3D3D0A0020555342204F544703
:103FF000204653204D534320486F73740000000047
:10400000B80000203E2055534220486F7374206C46
:1040100069627261727920737461727465642E0AC8
:10402000000000002041524D4A495348552E434F4D
:104030004D2055534220486F7374204C6962726161
:1040400072792076322E312E300000002DE9F047B3
:104050009CB068228B496846FCF796F88A4EDFF8D8
:104060002C928B4C30784FF478474FF0FF384FF656
:10407000FF7530B1012849D0022858D0032844D117
:10408000E4E08449002002F073FC70B1278082A034
:1040900001F0B4FD80A003F013FB81A001F0AEFDA0
:1040A0007FA003F00DFB2580E2E0A846258085A0D7
:1040B00001F0A4FD83A003F003FB2580B9F80810EC
:1040C000D9F800004D464843010D85A001F096FD4A
:1040D000298928684843010D81A003F0F1FA287B63
:1040E000012810D127806CA001F088FD6AA003F0A0
:1040F000E7FA64483C3801F081FD62483C3803F03F
:10410000DFFAA4F8008001203070B9E05D48258016
:10411000583801F073FD5B48583803F0D1FA01219B
:1041200077A0FCF7C1F9002070700220ECE74FF493
:10413000FC6A5046FCF792FF72A1C620FCF7C2FC55
:104140007CA1D220FCF7BEFC2846FCF787FF642048
:1041500000F0ACFA02E000BFFEF78CFA7C48FCF7F6
:104160004FFB20B10220FDF79DFF0128F4D02580F0
:1041700078A001F043FD77A003F0A2FA99F80C00B3
:104180004FF00308012825D04249002002F0F0FB3F
:104190000A2279A17B4802F0FFFB00282BD0258062
:1041A00079A001F02BFD78A003F08AFA86F8008050
:1041B0005046FCF753FF53A1C620FCF783FC7BA1BC
:1041C000D220FCF77FFC83A003F07AFA2846FCF7A4
:1041D00045FF55E0278030A001F010FD2EA003F030
:1041E0006FFA86A001F00AFD84A003F069FA258029
:1041F00086F8008044E066221AAB6946614802F006
:10420000C0FDBDF8681001B170B1278022A001F097
:10421000F5FC21A003F054FA81A001F0EFFC80A08E
:1042200003F04EFA258006E0258085A001F0E6FC2B
:1042300083A003F045FA534802F0F0FA0021084643
:1042400002F096FBB2E700BFFEF714FA4048FCF715
:10425000D7FA20B10220FDF725FF0128F4D03C4811
:10426000FCF7CEFA60B10B49002002F081FB18B1D7
:1042700040461CB0BDE8F08778A0FCF7D5FAF8E717
:104280000020F6E7DC79000804000020C40F0020BD
:10429000B8000020700700204552524F523A2000CB
:1042A0003E2043616E6E6F7420696E697469616C43
:1042B000697A652046696C652053797374656D2E43
:1042C0000A0000003E2046696C65205379737465CE
:1042D0006D20696E697469616C697A65642E0A0083
:1042E0003E204469736B2063617061636974792057
:1042F0003A202564204D2042797465730A0000003D
:10430000303A2F0020202020202020202020202094
:10431000202020202020202020202020202020209D
:10432000202020202020202020202020202020208D
:10433000202000005072657373204B657932207421
:104340006F2077726974652066696C6500000000F3
:10435000400100203E2057726974696E67204669EB
:104360006C6520746F206469736B20666C61736880
:10437000202E2E2E0A000000303A53544D33322E98
:1043800054585400A00900203E2053544D33322E7F
:10439000545854206372656174656420696E20749A
:1043A0006865206469736B0A00000000546F207315
:1043B0007461727420496D61676520736C6964650E
:1043C0002073686F77205072657373204B65792E68
:1043D000000000000A20546F207374617274204939
:1043E0006D61676520736C6964652073686F772001
:1043F0005072657373204B65792E00003E2044692E
:10440000736B20666C6173682069732077726974BE
:10441000652070726F746563746564200A00000023
:104420003E2053544D33322E5458542043414E4E67
:104430004F542062652077726974656E2E0A000001
:104440003E202753544D33322E545854272066694A
:104450006C6520637265617465640A00303A2F4DA3
:10446000656469610000000010B5074904464FF615
:10447000FF700880214605A001F0C0FB2146BDE881
:10448000104002A003F01CB9B80000204D616E7509
:104490006661637475726572203A2025730A0000A4
:1044A00010B50A4C4FF47840208009A001F0A6FB1B
:1044B00007A003F005F908A001F0A0FB06A003F097
:1044C000FFF84FF6FF70208010BD0000B8000020FC
:1044D0004552524F523A20004F76657263757272A0
:1044E000656E742064657465637465642E000000F5
:1044F00010B5074904464FF6FF700880214605A015
:1045000001F07CFB2146BDE8104002A003F0D8B8C2
:10451000B800002050726F64756374203A202573D0
:104520000A0000007047000010B5074904464FF626
:10453000FF700880214605A001F060FB2146BDE820
:10454000104002A003F0BCB8B800002053657269A7
:10455000616C204E756D626572203A2025730A00E9
:1045600010B50A4C4FF47840208009A001F046FBBA
:1045700007A003F0A5F8084801F040FB064803F047
:104580009FF84FF6FF70208010BD0000B80000209B
:104590004552524F523A2000BF79000810B500240E
:1045A0000220FDF77FFD00B90124204610BD000068
:1045B00038B501210820FDF771FC4FF48074ADF887
:1045C000004003208DF802001020074D8DF80300F5
:1045D00069462846FCF748F821462846FCF7CEF8FD
:1045E000C82000F063F838BD000C01400A00044800
:1045F0004FF4807101D0FCF7BFB8FCF7BFB80000E2
:10460000000C014008B54FF4C060FDF713FC4320D7
:104610008DF8000001208DF8010003218DF80210B3
:104620008DF803006846FDF7D3FB08BD08B50020F0
:10463000FDF7A6FC01210803FDF718FC00214FF04F
:104640000060FDF701FC4FF4A060FDF7F3FB1C20B8
:104650008DF8000001208DF801008DF802008DF822
:1046600003006846FDF7B4FB01210846FDF70AFC8C
:1046700008BD000010B501218C072046FDF799FF09
:10468000002809D001212046FDF786FF0649086869
:1046900018B10868401E086010BD2046BDE81040F3
:1046A0000021FDF77CBF0000000000200121FBF786
:1046B0004FBE0221FBF74CBE70B50446017A0025BF
:1046C000C068012915D0C16841F04001C160204691
:1046D00000F086F8617A4FF4341009B14FF4741089
:1046E000E16888631420FFF7E1FFE078012819D022
:1046F00020E0816B627A21F480310AB141F48011AB
:104700008163E068C16821F0401121F42021C1607B
:10471000204600F065F8E07801280BD1E1682A20F6
:104720008860E2E7E068816821F01E010A3141F00B
:1047300020018160284670BD2DE9F0410027044624
:104740003E463D46FFF734FFD4F80C010560207A61
:1047500001280FD00121204600F024FA204600F065
:1047600053FA6069016821F004010160E07A0128D0
:1047700002D015E00021EEE7E06880214162284682
:1047800061F30F00E268602161F31F409062E02254
:10479000284662F30F0061F31F40E168C1F8000191
:1047A0001021204600F0B6F8204600F097F84FF0B0
:1047B000FF3107E004EB860050F8902F916000680D
:1047C000C560761C2078B042F4D80121204600F064
:1047D0003BF8204600F05EF83846BDE8F081000066
:1047E000F8B5002704463E460097124D0320FFF718
:1047F00060FFE06800690090761CAE4201D900209D
:10480000F8BD00980028F1DA0099002041F001017C
:1048100000910099E2681161E1680A690092401C08
:10482000A84202D8009AD207F7D10320FFF741FF30
:104830003846F8BD400D0300C0680021826822F0B0
:10484000010282600846704770B504460D46FFF7C6
:10485000CDFE204600F0BFF9C10408D4012D0CD1D3
:10486000D4F8CC1040F480500860C10405D525B9B7
:10487000D4F8CC1020F480500860BDE87040C82007
:10488000FFF714BFC0680021826842F00102826015
:104890000846704710B5C368002211469A61C46883
:1048A000531E6361C4686360C4686FF080436361D2
:1048B000C468094BA361C37803B91021C36841F0F0
:1048C0000C5141F00801986941F4001188430843F4
:1048D0009861104610BD00000008008038B5002423
:1048E00021460094009A42F010020092009AC36898
:1048F0001A61074AC06803690093491C914202D8B3
:10490000009BDB06F7D40320FFF7D3FE204638BD1B
:10491000400D030038B5002422460094009B43F06C
:1049200020030093009B61F38A1300930099C368EE
:1049300019610749C06803690093521C8A4202D872
:10494000009B9B06F7D40320FFF7B3FE204638BD3B
:10495000400D030010B500EB8100002350F8901FBC
:104960004FF00042012464F3DC420A6100680168F0
:1049700021F0804141F000410160184610BD10B5A2
:1049800000EB81010022D1F89030196841F04041DC
:1049900011F4402F09D0C1F38144022C05D04069A5
:1049A000006910F47F0F03D004E0C068C06AF8E724
:1049B00021F000411960104610BD0000F0B500EB79
:1049C00081040026D4F89050B446731E6246AB6052
:1049D000C378012B00D1042200EB411393F8B153AB
:1049E00035B1012D1DD0022D02D0032D23D10EE0B3
:1049F00042F0890293F8AE5342F4826275B993F89B
:104A0000B05342F04002B5B142F0200213E042F050
:104A1000990293F8AE7342F4C06267B142F48072B7
:104A200009E042F0010293F8AE7342F4087217B144
:104A300042F08002F2E7D4F89050EA6001228A4006
:104A400041698D6915438D61C068816941F00071CC
:104A5000816193F8AC0360F39C5C93F8AD0360F361
:104A6000CE2C93F8AE0360F3CF3C93F8AF0302284B
:104A70000DD02CF4003000BF93F8B113B3F8B2237B
:104A800061F3934062F30A00032903D004E04CF47D
:104A90000030F1E740F00050D4F890100860304644
:104AA000F0BDF0B500EB41140027D4F8BC23064656
:104AB0004FF480753B466AB1B4F8B2030244521E0B
:104AC000B2FBF0F292B2AA4205D900022A46C4F81B
:104AD000BC0300E0012294F8AE03A8B1B4F8B2031D
:104AE0005043C4F8BC0360F3120362F3DC4394F850
:104AF000B40306EB810260F35E73D2F890000361A9
:104B0000F078012803D007E0D4F8BC03EBE7D2F833
:104B10009030D4F8B803586152F8900F03683046CB
:104B200000F046F860F35D73126823F0804040F0B7
:104B300000401060F07898BB94F8AE0380BBD4F8C6
:104B4000BC0368B394F8B12332B1012A11D0022A10
:104B500002D0032A1AD10CE0F268D36AC01CC0F359
:104B60008F009BB2834211D2906940F02000906187
:104B70000CE072691269C01CC0F38F0092B28242CD
:104B800004D2F068826942F080628261D4F8BC038A
:104B90000A4683B2D4F8B8030146304601F018F84B
:104BA0003846F0BD4269106861F30100106070473B
:104BB0004069806840F30000401C7047C06840694D
:104BC00000F00100012800D000207047C068416952
:104BD000806908407047D0F8CC00006820F02E00B3
:104BE0007047406940697047034610B50846002188
:104BF000D21C9208D3F8D03003E01C6840F8044B74
:104C0000491C9142F9D310BD70B50446FFF7E3FF8C
:104C100040F4807554F8CC0F05600A20FFF746FD7C
:104C2000216825F4807008601420FFF73FFD012003
:104C300070BD000070B500220125C270402685704D
:104C4000144613468680012901D061B114E0C57273
:104C50000821017004214FF0A04241709115C180DC
:104C60000221017208E0C3720C210170062141701B
:104C70001F4A4FF4A061C18002F50061C0E9032121
:104C800000210AE002EB411303F5106600EB8105F9
:104C900003F53063AE61491C6B6543788B42F1D8F4
:104CA00002F5806141614031C0F8CC10002108E07C
:104CB00002EB411300EB810503F5A063491CC5F825
:104CC000903003788B42F3D8002108E002EB0133E7
:104CD00000EB810503F58053491CC5F8D0300378FB
:104CE0008B42F3D802F56062C0F80C21204670BDFB
:104CF0000000044010B5C0680024C268012922F0F9
:104D0000C04201D019B104E042F0005201E042F08B
:104D10008042C2603220FFF7C9FC204610BD00006F
:104D200038B504464FF000000090084800688168DC
:104D300020468847009820F0005000F10050009075
:104D40000098E16848614FF0010038BD7400002010
:104D50000CB50146D1F8900000680090009820F052
:104D6000004000F100400090009820F0804000F1E9
:104D700080400090009AD1F8900002604FF000004F
:104D80000190019820F4001000F5001001900198A6
:104D9000CA6850614FF001000CBD7CB505464FF06C
:104DA000000426462846FFF71CFF019000BF1FE0C5
:104DB000019880B2012101FA04F1084216D005F1F0
:104DC000900050F82400006800900098C0F3C030B4
:104DD00030B12146284600F010F840EA060605E00A
:104DE0002146284600F04CFA40EA060604F1010488
:104DF0002878A042DCD830467CBD70B586B0054628
:104E00000C4605F1900050F82460B0680590F068F9
:104E10000490DDE9041000EA0100059005F190001E
:104E200050F82400006803904FF0000004900598AB
:104E3000C0F38000E8B14FF000000190019820F02D
:104E4000040000F1040001900198B06005F19000A9
:104E500050F82400C0680190019820F0020000F191
:104E60000200019005F1900050F824000199C16002
:104E700080E00598C0F3401058B14FF00000019059
:104E8000019820F0200000F1200001900198B0600E
:104E900070E00598C0F3C000A8B305F1900050F889
:104EA0002400C0680190019820F0020000F1020087
:104EB000019005F1900050F824000199C1604FF075
:104EC000050105F5637001554FF000000190019850
:104ED00020F0100000F1100001900198B0604FF038
:104EE00000000190019820F0080000F108000190F6
:104EF0000198B060059820F010000590E1B22846B6
:104F0000FFF73DFD36E0FFE70598C0F3802088B34A
:104F100005F1900050F82400C0680190019820F03D
:104F2000020000F10200019005F1900050F8240009
:104F30000199C160E1B22846FFF721FD4FF0000062
:104F40000190019820F0100000F1100001900198EC
:104F5000B0604FF0080105F5637001554FF0000097
:104F60000190019820F4806000F580600190019824
:104F7000B06000BF0598C0F3402008B305F1900071
:104F800050F82400C0680190019820F0020000F160
:104F90000200019005F1900050F824000199C160D1
:104FA000E1B22846FFF7EBFC4FF0000001900198BA
:104FB00020F4007000F5007001900198B0605CE191
:104FC0000598C0F3000000287AD0E878012813D1B2
:104FD00005F1900050F824000069029005F56B700F
:104FE00000EB441000690299C1F31201A0EB01012A
:104FF00005F5547040F824104FF0010105F5637079
:1050000001554FF0000105F5457040F824100846A1
:105010000190019820F0010000F101000190019839
:10502000B0600398C0F3814020B10398C0F3814081
:1050300002282DD105F1900050F82400C06801909D
:10504000019820F0020000F10200019005F19000AB
:1050500050F824000199C160E1B22846FFF78FFCA7
:105060004FF000000190019820F0100000F11000B6
:1050700001900198B06005F56B7000EB4410007E64
:1050800080F0010105F56B7000EB44100176F4E04F
:105090000398C0F38140032891D1039820F0005079
:1050A00000F10050039005F1900050F8240003999E
:1050B00001604FF0010105F29B300155DDE0FFE793
:1050C0000598C0F34000002857D005F1900050F833
:1050D0002400C0680190019820F00200019005F1C1
:1050E000900050F824000199C16005F56370005DDF
:1050F000012804D1014605F29B30015531E005F548
:105100006370005D052805D14FF0040105F29B3066
:10511000015526E005F56370005D062804D005F50D
:105120006370005D08280BD14FF0000105F5457054
:1051300040F824104FF0030105F29B30015510E0B8
:105140000398C0F3814003280BD105F56B7000EB89
:105150004410007E80F0010105F56B7000EB4410F7
:1051600001764FF000000190019820F0020000F15C
:10517000020001900198B0607FE00598C0F3C01074
:1051800070B305F1900050F82400C06801900198B8
:1051900020F0020000F10200019005F1900050F8AB
:1051A00024000199C16005F5457050F8241001F103
:1051B000010140F824104FF0060105F56370015518
:1051C000E1B22846FFF7DBFB4FF0000001900198A9
:1051D00020F0800000F1800001900198B0604CE068
:1051E000FFE70598C0F30010E8B30398C0F38140CF
:1051F000032816D105F1900050F82400C0680190F2
:10520000019820F0020000F10200019005F19000E9
:1052100050F824000199C160E1B22846FFF7AFFBC6
:1052200018E00398C0F3814020B10398C0F3814097
:1052300002280FD1039820F0004000F100400390B5
:10524000039820F08040039005F1900050F824006E
:10525000039901604FF0030105F5637001554FF0AC
:105260000000019000E008E0019820F0100000F13B
:10527000100001900198B06000BF012006B070BD21
:105280007FB505460C4605F1900050F82460B068E3
:105290000390F0680290DDE9021000EA010003903B
:1052A00005F1900050F82400006801900398C0F3C5
:1052B0008000E8B14FF000000090009820F004005A
:1052C00000F1040000900098B06005F1900050F8E3
:1052D0002400C0680090009820F0020000F1020055
:1052E000009005F1900050F824000099C160DAE1C7
:1052F0000398C0F3401058B14FF0000000900098A0
:1053000020F0200000F1200000900098B060CAE179
:105310000398C0F3402008B305F1900050F8240032
:10532000C0680090009820F0020000F10200009098
:1053300005F1900050F824000099C160E1B22846C0
:10534000FFF71DFB4FF000000090009820F4007064
:1053500000F5007000900098B060A4E10398C0F3DD
:10536000000060B34FF0000105F5457040F82410CF
:1053700005F1900050F82400C0680090009820F0DB
:10538000020000F10200009005F1900050F82400A6
:105390000099C160E1B22846FFF7F1FA4FF0000032
:1053A0000090009820F0010000F1010000900098AA
:1053B000B0604FF0010105F56370015573E103988A
:1053C000C0F3C00030B34FF000000090009820F010
:1053D000080000F1080000900098B06005F190000E
:1053E00050F82400C0680090009820F0020000F1FE
:1053F0000200009005F1900050F824000099C1606F
:10540000E1B22846FFF7BBFA4FF0050105F56370DE
:10541000015548E10398C0F3001060B34FF000015C
:1054200005F5457040F8241005F1900050F824006F
:10543000C0680090009820F0020000F10200009087
:1054400005F1900050F824000099C160E1B22846AF
:10545000FFF795FA4FF000000090009820F0100040
:1054600000F1100000900098B0604FF0030105F5C6
:105470006370015517E10398C0F3C01070B305F1D4
:10548000900050F82400C0680090009820F00200BE
:1054900000F10200009005F1900050F824000099FE
:1054A000C160E1B22846FFF76AFA05F5457050F889
:1054B000241001F1010140F824104FF0060105F518
:1054C000637001554FF000000090009820F08000BC
:1054D00000F1800000900098B060E4E00398C0F311
:1054E000801060B34FF0000105F5457040F82410BE
:1054F00005F1900050F82400C0680090009820F05A
:10550000020000F10200009005F1900050F8240024
:105510000099C160E1B22846FFF731FA4FF0000070
:105520000090009820F0400000F1400000900098AA
:10553000B0604FF0040105F563700155B3E00398C6
:10554000C0F3802088B305F1900050F82400C068B3
:105550000090009820F0020000F10200009005F198
:10556000900050F824000099C160E1B22846FFF78E
:1055700006FA4FF000000090009820F0100000F1B3
:10558000100000900098B0604FF0080105F56370BE
:1055900001554FF000000090009820F4806000F565
:1055A000806000900098B0607DE0FFE70398C0F352
:1055B0004000002877D005F1900050F82400C06822
:1055C0000090009820F00200009005F1900050F843
:1055D00024000099C16005F56370005D012815D1B4
:1055E000014605F29B3001550198C0F38140022825
:1055F0004DD105F56B7000EB4410407E80F0010149
:1056000005F56B7000EB4410417640E005F56370E2
:10561000005D032805D14FF0020105F29B300155D2
:1056200035E005F56370005D042810D105F56B7059
:1056300000EB44100079012803D1E1B22846FFF7BE
:1056400089F94FF0020105F29B3001551FE005F585
:105650006370005D052805D14FF0040105F29B3011
:10566000015514E005F56370005D06280FD105F5BE
:10567000457050F82400032809D1014605F29B30FB
:1056800001554FF0000105F5457040F824104FF02A
:1056900000000090009820F0020000F1020000904D
:1056A0000098B06000BF012004B070BD7FB5044613
:1056B000E068C06A00900198C0F3C30104F56B7004
:1056C00000EB4110006900F10300C0F38F067AE09F
:1056D00000984FEA80404FEA10450198C0F3C3019B
:1056E00004F56B7000EB41100069A84218D20198D4
:1056F000C0F3C30104F56B7000EB4110006985B283
:105700004FF000000390039820F0200000F12000EB
:105710000390E0688069039920EA0100E1688861EC
:105720000198C0F3C30104F56B7000EB41100069F0
:1057300000F10300C0F38F060198C0F3C302C0F369
:10574000C30304F56B7000EB43102B46C168204681
:1057500000F03EFA0198C0F3C30104F56B7000EB52
:105760004110C06800EB05010198C0F3C30204F5C5
:105770006B7000EB4210C1600198C0F3C30104F5E7
:105780006B7000EB41100069A0EB05010198C0F3BC
:10579000C30204F56B7000EB421001610198C0F385
:1057A000C30104F56B7000EB4110406900EB05018B
:1057B0000198C0F3C30204F56B7000EB4210416125
:1057C000E068C06A0090009880B2B0420ADD01989B
:1057D000C0F3C30104F56B7000EB411000690028B1
:1057E0007FF476AF012004B070BD0000FEB5044622
:1057F0004FF0000635462846009002900190D4F8FC
:10580000CC0000680290D4F8CC00006801900198A8
:1058100020F004000190019820F00200019001980E
:1058200020F008000190019820F0200001900298DB
:10583000C0F3400060B1019820F0020000F10200C6
:1058400001903448006841682046884745F00105CA
:105850000298C0F3C000002846D0019820F008004C
:1058600000F1080001900298C0F3800001283BD1AC
:10587000284800684168204688470298C0F34140A4
:10588000022804D00298C0F3414001282AD160695F
:10589000006800900298C0F34140022812D141F202
:1058A0007071606941600098C0F3010002281BD04C
:1058B000207A022803D102212046FFF773F94FF026
:1058C000010611E04BF68031606941600098C0F339
:1058D0000100012808D001212046FFF763F94FF0AD
:1058E000010601E04FF001060298C0F3401038B104
:1058F000019820F0200000F12000019045F0010502
:1059000016B12046FFF780F90199D4F8CC00016068
:105910002846FEBD74000020FEB50446606900699B
:1059200000900198C0F3C30104F56B7000EB4110C7
:10593000006900F10300C0F38F067AE000984FEA97
:1059400080404FEA10450198C0F3C30104F56B7025
:1059500000EB41100069A84218D20198C0F3C301BE
:1059600004F56B7000EB4110006985B24FF0000048
:105970000290029820F0806000F180600290E06860
:105980008069029920EA0100E16888610198C0F30A
:10599000C30104F56B7000EB4110006900F10300D6
:1059A000C0F38F060198C0F3C302C0F3C30304F52C
:1059B0006B7000EB43102B46C168204600F008F9DD
:1059C0000198C0F3C30104F56B7000EB4110C0688F
:1059D00000EB05010198C0F3C30204F56B7000EB06
:1059E0004210C1600198C0F3C30104F56B7000EB75
:1059F00041100069A0EB05010198C0F3C30204F552
:105A00006B7000EB421001610198C0F3C30104F513
:105A10006B7000EB4110406900EB05010198C0F389
:105A2000C30204F56B7000EB4210416160690069CC
:105A30000090009880B2B0420ADD0198C0F3C30123
:105A400004F56B7000EB4110006900287FF476AF1D
:105A50000120FEBD7FB504464FF0000528460290A8
:105A6000029820F0100000F110000290E0688069B8
:105A7000029920EA0100E1688861E068006A039009
:105A80000398C0F3030504F1900050F82500006866
:105A900000900398C0F34340022806D0032869D041
:105AA000052868D0072864D166E00398C0F30A107F
:105AB00000285DDD04F56B7000EB4510C068002820
:105AC00056D00398C0F30A1204F56B7000EB451032
:105AD000C1682046FFF788F80398C0F3030104F576
